{
  "contractName": "Contract",
  "abi": [
    {
      "anonymous": false,
      "inputs": [
        {
          "indexed": false,
          "internalType": "string",
          "name": "fileHash",
          "type": "string"
        },
        {
          "indexed": true,
          "internalType": "address",
          "name": "deleter",
          "type": "address"
        }
      ],
      "name": "DocumentDeleted",
      "type": "event"
    },
    {
      "anonymous": false,
      "inputs": [
        {
          "indexed": false,
          "internalType": "string",
          "name": "fileHash",
          "type": "string"
        },
        {
          "indexed": true,
          "internalType": "address",
          "name": "retriever",
          "type": "address"
        }
      ],
      "name": "DocumentRetrieved",
      "type": "event"
    },
    {
      "anonymous": false,
      "inputs": [
        {
          "indexed": false,
          "internalType": "string",
          "name": "fileHash",
          "type": "string"
        },
        {
          "indexed": false,
          "internalType": "string",
          "name": "newTitle",
          "type": "string"
        },
        {
          "indexed": true,
          "internalType": "address",
          "name": "updater",
          "type": "address"
        }
      ],
      "name": "DocumentUpdated",
      "type": "event"
    },
    {
      "anonymous": false,
      "inputs": [
        {
          "indexed": false,
          "internalType": "string",
          "name": "fileHash",
          "type": "string"
        },
        {
          "indexed": true,
          "internalType": "address",
          "name": "uploader",
          "type": "address"
        },
        {
          "indexed": false,
          "internalType": "string",
          "name": "title",
          "type": "string"
        }
      ],
      "name": "DocumentUploaded",
      "type": "event"
    },
    {
      "constant": false,
      "inputs": [
        {
          "internalType": "string",
          "name": "_fileHash",
          "type": "string"
        },
        {
          "internalType": "string",
          "name": "_title",
          "type": "string"
        }
      ],
      "name": "uploadDocument",
      "outputs": [],
      "payable": false,
      "stateMutability": "nonpayable",
      "type": "function"
    },
    {
      "constant": true,
      "inputs": [
        {
          "internalType": "string",
          "name": "_fileHash",
          "type": "string"
        }
      ],
      "name": "getDocumentDetails",
      "outputs": [
        {
          "internalType": "address",
          "name": "",
          "type": "address"
        },
        {
          "internalType": "string",
          "name": "",
          "type": "string"
        },
        {
          "internalType": "uint256",
          "name": "",
          "type": "uint256"
        }
      ],
      "payable": false,
      "stateMutability": "view",
      "type": "function"
    },
    {
      "constant": false,
      "inputs": [
        {
          "internalType": "string",
          "name": "_fileHash",
          "type": "string"
        }
      ],
      "name": "retrieveDocument",
      "outputs": [],
      "payable": false,
      "stateMutability": "nonpayable",
      "type": "function"
    },
    {
      "constant": false,
      "inputs": [
        {
          "internalType": "string",
          "name": "_fileHash",
          "type": "string"
        },
        {
          "internalType": "string",
          "name": "_newTitle",
          "type": "string"
        }
      ],
      "name": "updateDocumentTitle",
      "outputs": [],
      "payable": false,
      "stateMutability": "nonpayable",
      "type": "function"
    },
    {
      "constant": false,
      "inputs": [
        {
          "internalType": "string",
          "name": "_fileHash",
          "type": "string"
        }
      ],
      "name": "deleteDocument",
      "outputs": [],
      "payable": false,
      "stateMutability": "nonpayable",
      "type": "function"
    },
    {
      "constant": true,
      "inputs": [
        {
          "internalType": "string",
          "name": "_fileHash",
          "type": "string"
        }
      ],
      "name": "documentExists",
      "outputs": [
        {
          "internalType": "bool",
          "name": "",
          "type": "bool"
        }
      ],
      "payable": false,
      "stateMutability": "view",
      "type": "function"
    }
  ],
  "bytecode": "0x608060405234801561001057600080fd5b506114a8806100206000396000f3fe608060405234801561001057600080fd5b50600436106100625760003560e01c80633026785f146100675780634464fe331461011f5780635aa338f41461024a578063635994f8146102ee578063d29352db14610392578063f979d5ce146104c4575b600080fd5b61010b6004803603602081101561007d57600080fd5b810190602081018135600160201b81111561009757600080fd5b8201836020820111156100a957600080fd5b803590602001918460018302840111600160201b831117156100ca57600080fd5b91908080601f0160208091040260200160405190810160405280939291908181526020018383808284376000920191909152509295506105ed945050505050565b604080519115158252519081900360200190f35b6102486004803603604081101561013557600080fd5b810190602081018135600160201b81111561014f57600080fd5b82018360208201111561016157600080fd5b803590602001918460018302840111600160201b8311171561018257600080fd5b91908080601f0160208091040260200160405190810160405280939291908181526020018383808284376000920191909152509295949360208101935035915050600160201b8111156101d457600080fd5b8201836020820111156101e657600080fd5b803590602001918460018302840111600160201b8311171561020757600080fd5b91908080601f01602080910402602001604051908101604052809392919081815260200183838082843760009201919091525092955061066d945050505050565b005b6102486004803603602081101561026057600080fd5b810190602081018135600160201b81111561027a57600080fd5b82018360208201111561028c57600080fd5b803590602001918460018302840111600160201b831117156102ad57600080fd5b91908080601f0160208091040260200160405190810160405280939291908181526020018383808284376000920191909152509295506109d3945050505050565b6102486004803603602081101561030457600080fd5b810190602081018135600160201b81111561031e57600080fd5b82018360208201111561033057600080fd5b803590602001918460018302840111600160201b8311171561035157600080fd5b91908080601f016020809104026020016040519081016040528093929190818152602001838380828437600092019190915250929550610c7d945050505050565b610436600480360360208110156103a857600080fd5b810190602081018135600160201b8111156103c257600080fd5b8201836020820111156103d457600080fd5b803590602001918460018302840111600160201b831117156103f557600080fd5b91908080601f016020809104026020016040519081016040528093929190818152602001838380828437600092019190915250929550610eb6945050505050565b604080516001600160a01b0385168152908101829052606060208083018281528551928401929092528451608084019186019080838360005b8381101561048757818101518382015260200161046f565b50505050905090810190601f1680156104b45780820380516001836020036101000a031916815260200191505b5094505050505060405180910390f35b610248600480360360408110156104da57600080fd5b810190602081018135600160201b8111156104f457600080fd5b82018360208201111561050657600080fd5b803590602001918460018302840111600160201b8311171561052757600080fd5b91908080601f0160208091040260200160405190810160405280939291908181526020018383808284376000920191909152509295949360208101935035915050600160201b81111561057957600080fd5b82018360208201111561058b57600080fd5b803590602001918460018302840111600160201b831117156105ac57600080fd5b91908080601f0160208091040260200160405190810160405280939291908181526020018383808284376000920191909152509295506110e2945050505050565b6000806001600160a01b03166000836040518082805190602001908083835b6020831061062b5780518252601f19909201916020918201910161060c565b51815160209384036101000a60001901801990921691161790529201948552506040519384900301909220546001600160a01b03169290921415949350505050565b60008251116106c3576040805162461bcd60e51b815260206004820152601a60248201527f46696c6520686173682063616e6e6f7420626520656d7074792e000000000000604482015290519081900360640190fd5b6000815111610712576040805162461bcd60e51b81526020600482015260166024820152752a34ba36329031b0b73737ba1031329032b6b83a3c9760511b604482015290519081900360640190fd5b60006001600160a01b03166000836040518082805190602001908083835b6020831061074f5780518252601f199092019160209182019101610730565b51815160209384036101000a60001901801990921691161790529201948552506040519384900301909220546001600160a01b03169290921491506107dd9050576040805162461bcd60e51b815260206004820152601860248201527f446f63756d656e7420616c7265616479206578697374732e0000000000000000604482015290519081900360640190fd5b6040518060800160405280336001600160a01b03168152602001838152602001828152602001428152506000836040518082805190602001908083835b602083106108395780518252601f19909201916020918201910161081a565b51815160209384036101000a6000190180199092169116179052920194855250604051938490038101909320845181546001600160a01b0319166001600160a01b03909116178155848401518051919461089b9450600186019350019061130c565b50604082015180516108b791600284019160209091019061130c565b5060608201518160030155905050336001600160a01b03167fbdc7fde3b4a71173cee079101fe0d18731cbf1c571b1a8b63ff063c95367ac768383604051808060200180602001838103835285818151815260200191508051906020019080838360005b8381101561093357818101518382015260200161091b565b50505050905090810190601f1680156109605780820380516001836020036101000a031916815260200191505b50838103825284518152845160209182019186019080838360005b8381101561099357818101518382015260200161097b565b50505050905090810190601f1680156109c05780820380516001836020036101000a031916815260200191505b5094505050505060405180910390a25050565b6109db61138a565b6000826040518082805190602001908083835b60208310610a0d5780518252601f1990920191602091820191016109ee565b518151602093840361010090810a600019908101801990941693909216929092179092529290940196875260408051978890038201882060808901825280546001600160a01b0316895260018082018054845160029382161590970290980190971604601f81018490048402850184019092528184529650878201955091939250830182828015610adf5780601f10610ab457610100808354040283529160200191610adf565b820191906000526020600020905b815481529060010190602001808311610ac257829003601f168201915b5050509183525050600282810180546040805160206001841615610100026000190190931694909404601f81018390048302850183019091528084529381019390830182828015610b715780601f10610b4657610100808354040283529160200191610b71565b820191906000526020600020905b815481529060010190602001808311610b5457829003601f168201915b50505091835250506003919091015460209091015280519091506001600160a01b0316610be0576040805162461bcd60e51b81526020600482015260186024820152772237b1bab6b2b73a103237b2b9903737ba1032bc34b9ba1760411b604482015290519081900360640190fd5b604080516020808252845181830152845133937f6c145505643a3b8444f0c12ea8df8983e83b32cae97e966a540cdc8bc62966b29387939092839283019185019080838360005b83811015610c3f578181015183820152602001610c27565b50505050905090810190601f168015610c6c5780820380516001836020036101000a031916815260200191505b509250505060405180910390a25050565b600080826040518082805190602001908083835b60208310610cb05780518252601f199092019160209182019101610c91565b51815160001960209485036101000a01908116901991909116179052920194855250604051938490030190922080549093506001600160a01b031633149150610d2c90505760405162461bcd60e51b815260040180806020018281038252602a81526020018061144a602a913960400191505060405180910390fd5b80546001600160a01b0316610d83576040805162461bcd60e51b81526020600482015260186024820152772237b1bab6b2b73a103237b2b9903737ba1032bc34b9ba1760411b604482015290519081900360640190fd5b604080516020808252845181830152845133937f6f917eec072f3efd09efa2cbf7e49ee07b6dc496cab1b8a53758e0618b8190c39387939092839283019185019080838360005b83811015610de2578181015183820152602001610dca565b50505050905090810190601f168015610e0f5780820380516001836020036101000a031916815260200191505b509250505060405180910390a26000826040518082805190602001908083835b60208310610e4e5780518252601f199092019160209182019101610e2f565b51815160209384036101000a6000190180199092169116179052920194855250604051938490030190922080546001600160a01b0319168155915060009050610e9a60018301826113bb565b610ea86002830160006113bb565b600382016000905550505050565b600060606000610ec461138a565b6000856040518082805190602001908083835b60208310610ef65780518252601f199092019160209182019101610ed7565b518151602093840361010090810a600019908101801990941693909216929092179092529290940196875260408051978890038201882060808901825280546001600160a01b0316895260018082018054845160029382161590970290980190971604601f81018490048402850184019092528184529650878201955091939250830182828015610fc85780601f10610f9d57610100808354040283529160200191610fc8565b820191906000526020600020905b815481529060010190602001808311610fab57829003601f168201915b5050509183525050600282810180546040805160206001841615610100026000190190931694909404601f8101839004830285018301909152808452938101939083018282801561105a5780601f1061102f5761010080835404028352916020019161105a565b820191906000526020600020905b81548152906001019060200180831161103d57829003601f168201915b50505091835250506003919091015460209091015280519091506001600160a01b03166110c9576040805162461bcd60e51b81526020600482015260186024820152772237b1bab6b2b73a103237b2b9903737ba1032bc34b9ba1760411b604482015290519081900360640190fd5b8051604082015160609092015190969195509350915050565b600080836040518082805190602001908083835b602083106111155780518252601f1990920191602091820191016110f6565b51815160001960209485036101000a01908116901991909116179052920194855250604051938490030190922080549093506001600160a01b03163314915061119190505760405162461bcd60e51b815260040180806020018281038252602a815260200180611420602a913960400191505060405180910390fd5b60008251116111e7576040805162461bcd60e51b815260206004820152601a60248201527f4e6577207469746c652063616e6e6f7420626520656d7074792e000000000000604482015290519081900360640190fd5b81516111fc906002830190602085019061130c565b50336001600160a01b03167fc0773d0517931c6cae656eb7e6518a16195c0bf8cb268273bb4741743fa7b3648484604051808060200180602001838103835285818151815260200191508051906020019080838360005b8381101561126b578181015183820152602001611253565b50505050905090810190601f1680156112985780820380516001836020036101000a031916815260200191505b50838103825284518152845160209182019186019080838360005b838110156112cb5781810151838201526020016112b3565b50505050905090810190601f1680156112f85780820380516001836020036101000a031916815260200191505b5094505050505060405180910390a2505050565b828054600181600116156101000203166002900490600052602060002090601f016020900481019282601f1061134d57805160ff191683800117855561137a565b8280016001018555821561137a579182015b8281111561137a57825182559160200191906001019061135f565b50611386929150611402565b5090565b604051806080016040528060006001600160a01b031681526020016060815260200160608152602001600081525090565b50805460018160011615610100020316600290046000825580601f106113e157506113ff565b601f0160209004906000526020600020908101906113ff9190611402565b50565b61141c91905b808211156113865760008155600101611408565b9056fe4f6e6c79207468652075706c6f616465722063616e207570646174652074686520646f63756d656e742e4f6e6c79207468652075706c6f616465722063616e2064656c6574652074686520646f63756d656e742ea265627a7a723158208cc68b1591829e321fa82bb947f695d9ef4347182b10276c0b195f1a5c7f6cc564736f6c63430005100032",
  "source": "// SPDX-License-Identifier: MIT\r\npragma solidity >=0.4.22 <0.9.0;\r\n\r\ncontract Contract {\r\n    struct Document {\r\n        address uploader;\r\n        string fileHash;\r\n        string title; // Title of the document\r\n        uint256 timestamp;\r\n    }\r\n\r\n    // Mapping of file hashes to Document structs\r\n    mapping(string => Document) private documents;\r\n\r\n    // Events for actions\r\n    event DocumentUploaded(string fileHash, address indexed uploader, string title);\r\n    event DocumentUpdated(string fileHash, string newTitle, address indexed updater);\r\n    event DocumentRetrieved(string fileHash, address indexed retriever);\r\n    event DocumentDeleted(string fileHash, address indexed deleter);\r\n\r\n    // Function to upload a document\r\n    function uploadDocument(string memory _fileHash, string memory _title) public {\r\n        require(bytes(_fileHash).length > 0, \"File hash cannot be empty.\");\r\n        require(bytes(_title).length > 0, \"Title cannot be empty.\");\r\n        require(documents[_fileHash].uploader == address(0), \"Document already exists.\");\r\n\r\n        documents[_fileHash] = Document({\r\n            uploader: msg.sender,\r\n            fileHash: _fileHash,\r\n            title: _title,\r\n            timestamp: block.timestamp\r\n        });\r\n\r\n        emit DocumentUploaded(_fileHash, msg.sender, _title);\r\n    }\r\n\r\n    // Function to retrieve document details (view-only)\r\n    function getDocumentDetails(string memory _fileHash) public view returns (address, string memory, uint256) {\r\n        Document memory doc = documents[_fileHash];\r\n        require(doc.uploader != address(0), \"Document does not exist.\");\r\n\r\n        return (doc.uploader, doc.title, doc.timestamp);\r\n    }\r\n\r\n    // Function to emit event when document is retrieved\r\n    function retrieveDocument(string memory _fileHash) public {\r\n        Document memory doc = documents[_fileHash];\r\n        require(doc.uploader != address(0), \"Document does not exist.\");\r\n\r\n        emit DocumentRetrieved(_fileHash, msg.sender); // Emit event on retrieval\r\n    }\r\n\r\n    // Function to update the document title\r\n    function updateDocumentTitle(string memory _fileHash, string memory _newTitle) public {\r\n        Document storage doc = documents[_fileHash];\r\n        require(doc.uploader == msg.sender, \"Only the uploader can update the document.\");\r\n        require(bytes(_newTitle).length > 0, \"New title cannot be empty.\");\r\n\r\n        doc.title = _newTitle;\r\n\r\n        emit DocumentUpdated(_fileHash, _newTitle, msg.sender);\r\n    }\r\n\r\n    // Function to delete a document\r\n    function deleteDocument(string memory _fileHash) public {\r\n        Document storage doc = documents[_fileHash];\r\n        require(doc.uploader == msg.sender, \"Only the uploader can delete the document.\");\r\n        require(doc.uploader != address(0), \"Document does not exist.\");\r\n\r\n        emit DocumentDeleted(_fileHash, msg.sender); // Emit event before deletion\r\n        delete documents[_fileHash]; // Delete the document from the mapping\r\n    }\r\n\r\n    // Function to check if a document exists (for external validation)\r\n    function documentExists(string memory _fileHash) public view returns (bool) {\r\n        return documents[_fileHash].uploader != address(0);\r\n    }\r\n}\r\n",
  "sourcePath": "C:\\block\\contracts\\Contract.sol",
  "compiler": {
    "name": "solc",
    "version": "0.5.16+commit.9c3226ce.Emscripten.clang"
  },
  "schemaVersion": "3.4.16",
  "updatedAt": "2024-11-15T16:59:31.605Z",
  "networkType": "ethereum",
  "devdoc": {
    "methods": {}
  },
  "userdoc": {
    "methods": {}
  }
}