{
  "contractName": "DocumentStorage",
  "abi": [
    {
      "anonymous": false,
      "inputs": [
        {
          "indexed": false,
          "internalType": "string",
          "name": "fileHash",
          "type": "string"
        },
        {
          "indexed": true,
          "internalType": "address",
          "name": "deleter",
          "type": "address"
        }
      ],
      "name": "DocumentDeleted",
      "type": "event"
    },
    {
      "anonymous": false,
      "inputs": [
        {
          "indexed": false,
          "internalType": "string",
          "name": "fileHash",
          "type": "string"
        },
        {
          "indexed": true,
          "internalType": "address",
          "name": "retriever",
          "type": "address"
        }
      ],
      "name": "DocumentRetrieved",
      "type": "event"
    },
    {
      "anonymous": false,
      "inputs": [
        {
          "indexed": false,
          "internalType": "string",
          "name": "fileHash",
          "type": "string"
        },
        {
          "indexed": false,
          "internalType": "string",
          "name": "newTitle",
          "type": "string"
        },
        {
          "indexed": true,
          "internalType": "address",
          "name": "updater",
          "type": "address"
        }
      ],
      "name": "DocumentUpdated",
      "type": "event"
    },
    {
      "anonymous": false,
      "inputs": [
        {
          "indexed": false,
          "internalType": "string",
          "name": "fileHash",
          "type": "string"
        },
        {
          "indexed": true,
          "internalType": "address",
          "name": "uploader",
          "type": "address"
        },
        {
          "indexed": false,
          "internalType": "string",
          "name": "title",
          "type": "string"
        }
      ],
      "name": "DocumentUploaded",
      "type": "event"
    },
    {
      "anonymous": false,
      "inputs": [
        {
          "indexed": false,
          "internalType": "string",
          "name": "fileHash",
          "type": "string"
        },
        {
          "indexed": false,
          "internalType": "address",
          "name": "verifier",
          "type": "address"
        }
      ],
      "name": "DocumentVerified",
      "type": "event"
    },
    {
      "constant": false,
      "inputs": [
        {
          "internalType": "string",
          "name": "_fileHash",
          "type": "string"
        },
        {
          "internalType": "string",
          "name": "_title",
          "type": "string"
        }
      ],
      "name": "uploadDocument",
      "outputs": [],
      "payable": false,
      "stateMutability": "nonpayable",
      "type": "function"
    },
    {
      "constant": true,
      "inputs": [
        {
          "internalType": "string",
          "name": "_fileHash",
          "type": "string"
        }
      ],
      "name": "getDocumentDetails",
      "outputs": [
        {
          "internalType": "address",
          "name": "",
          "type": "address"
        },
        {
          "internalType": "string",
          "name": "",
          "type": "string"
        },
        {
          "internalType": "uint256",
          "name": "",
          "type": "uint256"
        },
        {
          "internalType": "bool",
          "name": "",
          "type": "bool"
        }
      ],
      "payable": false,
      "stateMutability": "view",
      "type": "function"
    },
    {
      "constant": false,
      "inputs": [
        {
          "internalType": "string",
          "name": "_fileHash",
          "type": "string"
        }
      ],
      "name": "retrieveDocument",
      "outputs": [],
      "payable": false,
      "stateMutability": "nonpayable",
      "type": "function"
    },
    {
      "constant": false,
      "inputs": [
        {
          "internalType": "string",
          "name": "_fileHash",
          "type": "string"
        },
        {
          "internalType": "string",
          "name": "_newTitle",
          "type": "string"
        }
      ],
      "name": "updateDocumentTitle",
      "outputs": [],
      "payable": false,
      "stateMutability": "nonpayable",
      "type": "function"
    },
    {
      "constant": false,
      "inputs": [
        {
          "internalType": "string",
          "name": "_fileHash",
          "type": "string"
        }
      ],
      "name": "deleteDocument",
      "outputs": [],
      "payable": false,
      "stateMutability": "nonpayable",
      "type": "function"
    },
    {
      "constant": true,
      "inputs": [
        {
          "internalType": "string",
          "name": "_fileHash",
          "type": "string"
        }
      ],
      "name": "doesDocumentExist",
      "outputs": [
        {
          "internalType": "bool",
          "name": "",
          "type": "bool"
        }
      ],
      "payable": false,
      "stateMutability": "view",
      "type": "function"
    },
    {
      "constant": true,
      "inputs": [
        {
          "internalType": "string",
          "name": "_fileHash",
          "type": "string"
        }
      ],
      "name": "getDocument",
      "outputs": [
        {
          "internalType": "string",
          "name": "",
          "type": "string"
        },
        {
          "internalType": "string",
          "name": "",
          "type": "string"
        }
      ],
      "payable": false,
      "stateMutability": "view",
      "type": "function"
    },
    {
      "constant": false,
      "inputs": [
        {
          "internalType": "string",
          "name": "_fileHash",
          "type": "string"
        }
      ],
      "name": "verifyDocument",
      "outputs": [],
      "payable": false,
      "stateMutability": "nonpayable",
      "type": "function"
    },
    {
      "constant": true,
      "inputs": [
        {
          "internalType": "string",
          "name": "_fileHash",
          "type": "string"
        }
      ],
      "name": "isDocumentVerified",
      "outputs": [
        {
          "internalType": "bool",
          "name": "",
          "type": "bool"
        }
      ],
      "payable": false,
      "stateMutability": "view",
      "type": "function"
    }
  ],
  "bytecode": "0x608060405234801561001057600080fd5b50611e4f806100206000396000f3fe608060405234801561001057600080fd5b50600436106100935760003560e01c80637ccb6a64116100665780637ccb6a64146103c3578063beee5eb714610545578063d29352db146105e9578063ed041da414610724578063f979d5ce146107c857610093565b80634464fe33146100985780634d5e504b146101c35780635aa338f41461027b578063635994f81461031f575b600080fd5b6101c1600480360360408110156100ae57600080fd5b810190602081018135600160201b8111156100c857600080fd5b8201836020820111156100da57600080fd5b803590602001918460018302840111600160201b831117156100fb57600080fd5b91908080601f0160208091040260200160405190810160405280939291908181526020018383808284376000920191909152509295949360208101935035915050600160201b81111561014d57600080fd5b82018360208201111561015f57600080fd5b803590602001918460018302840111600160201b8311171561018057600080fd5b91908080601f0160208091040260200160405190810160405280939291908181526020018383808284376000920191909152509295506108f1945050505050565b005b610267600480360360208110156101d957600080fd5b810190602081018135600160201b8111156101f357600080fd5b82018360208201111561020557600080fd5b803590602001918460018302840111600160201b8311171561022657600080fd5b91908080601f016020809104026020016040519081016040528093929190818152602001838380828437600092019190915250929550610ce1945050505050565b604080519115158252519081900360200190f35b6101c16004803603602081101561029157600080fd5b810190602081018135600160201b8111156102ab57600080fd5b8201836020820111156102bd57600080fd5b803590602001918460018302840111600160201b831117156102de57600080fd5b91908080601f016020809104026020016040519081016040528093929190818152602001838380828437600092019190915250929550610d4c945050505050565b6101c16004803603602081101561033557600080fd5b810190602081018135600160201b81111561034f57600080fd5b82018360208201111561036157600080fd5b803590602001918460018302840111600160201b8311171561038257600080fd5b91908080601f016020809104026020016040519081016040528093929190818152602001838380828437600092019190915250929550611004945050505050565b610467600480360360208110156103d957600080fd5b810190602081018135600160201b8111156103f357600080fd5b82018360208201111561040557600080fd5b803590602001918460018302840111600160201b8311171561042657600080fd5b91908080601f016020809104026020016040519081016040528093929190818152602001838380828437600092019190915250929550611323945050505050565b604051808060200180602001838103835285818151815260200191508051906020019080838360005b838110156104a8578181015183820152602001610490565b50505050905090810190601f1680156104d55780820380516001836020036101000a031916815260200191505b50838103825284518152845160209182019186019080838360005b838110156105085781810151838201526020016104f0565b50505050905090810190601f1680156105355780820380516001836020036101000a031916815260200191505b5094505050505060405180910390f35b6101c16004803603602081101561055b57600080fd5b810190602081018135600160201b81111561057557600080fd5b82018360208201111561058757600080fd5b803590602001918460018302840111600160201b831117156105a857600080fd5b91908080601f016020809104026020016040519081016040528093929190818152602001838380828437600092019190915250929550611556945050505050565b61068d600480360360208110156105ff57600080fd5b810190602081018135600160201b81111561061957600080fd5b82018360208201111561062b57600080fd5b803590602001918460018302840111600160201b8311171561064c57600080fd5b91908080601f01602080910402602001604051908101604052809392919081815260200183838082843760009201919091525092955061171f945050505050565b604080516001600160a01b0386168152908101839052811515606082015260806020808301828152865192840192909252855160a084019187019080838360005b838110156106e65781810151838201526020016106ce565b50505050905090810190601f1680156107135780820380516001836020036101000a031916815260200191505b509550505050505060405180910390f35b6102676004803603602081101561073a57600080fd5b810190602081018135600160201b81111561075457600080fd5b82018360208201111561076657600080fd5b803590602001918460018302840111600160201b8311171561078757600080fd5b91908080601f016020809104026020016040519081016040528093929190818152602001838380828437600092019190915250929550611962945050505050565b6101c1600480360360408110156107de57600080fd5b810190602081018135600160201b8111156107f857600080fd5b82018360208201111561080a57600080fd5b803590602001918460018302840111600160201b8311171561082b57600080fd5b91908080601f0160208091040260200160405190810160405280939291908181526020018383808284376000920191909152509295949360208101935035915050600160201b81111561087d57600080fd5b82018360208201111561088f57600080fd5b803590602001918460018302840111600160201b831117156108b057600080fd5b91908080601f016020809104026020016040519081016040528093929190818152602001838380828437600092019190915250929550611a80945050505050565b6000825111610947576040805162461bcd60e51b815260206004820152601a60248201527f46696c6520686173682063616e6e6f7420626520656d7074792e000000000000604482015290519081900360640190fd5b6000815111610996576040805162461bcd60e51b81526020600482015260166024820152752a34ba36329031b0b73737ba1031329032b6b83a3c9760511b604482015290519081900360640190fd5b60006001600160a01b03166000836040518082805190602001908083835b602083106109d35780518252601f1990920191602091820191016109b4565b51815160209384036101000a60001901801990921691161790529201948552506040519384900301909220546001600160a01b0316929092149150610a619050576040805162461bcd60e51b815260206004820152601860248201527f446f63756d656e7420616c7265616479206578697374732e0000000000000000604482015290519081900360640190fd5b6040518060a00160405280336001600160a01b03168152602001838152602001828152602001428152602001600015158152506000836040518082805190602001908083835b60208310610ac65780518252601f199092019160209182019101610aa7565b51815160209384036101000a6000190180199092169116179052920194855250604051938490038101909320845181546001600160a01b0319166001600160a01b039091161781558484015180519194610b2894506001860193500190611caa565b5060408201518051610b44916002840191602090910190611caa565b50606082015160038201556080909101516004909101805460ff191691151591909117905560405182516001918291859190819060208401908083835b60208310610ba05780518252601f199092019160209182019101610b81565b51815160209384036101000a6000190180199092169116179052920194855250604080519485900382018520805460ff1916961515969096179095558484528651948401949094525050835133927fbdc7fde3b4a71173cee079101fe0d18731cbf1c571b1a8b63ff063c95367ac76928692869282918282019160608401919087019080838360005b83811015610c41578181015183820152602001610c29565b50505050905090810190601f168015610c6e5780820380516001836020036101000a031916815260200191505b50838103825284518152845160209182019186019080838360005b83811015610ca1578181015183820152602001610c89565b50505050905090810190601f168015610cce5780820380516001836020036101000a031916815260200191505b5094505050505060405180910390a25050565b60006001826040518082805190602001908083835b60208310610d155780518252601f199092019160209182019101610cf6565b51815160209384036101000a600019018019909216911617905292019485525060405193849003019092205460ff16949350505050565b610d54611d28565b6000826040518082805190602001908083835b60208310610d865780518252601f199092019160209182019101610d67565b518151602093840361010090810a600019908101801990941693909216929092179092529290940196875260408051978890038201882060a08901825280546001600160a01b0316895260018082018054845160029382161590970290980190971604601f81018490048402850184019092528184529650878201955091939250830182828015610e585780601f10610e2d57610100808354040283529160200191610e58565b820191906000526020600020905b815481529060010190602001808311610e3b57829003601f168201915b5050509183525050600282810180546040805160206001841615610100026000190190931694909404601f81018390048302850183019091528084529381019390830182828015610eea5780601f10610ebf57610100808354040283529160200191610eea565b820191906000526020600020905b815481529060010190602001808311610ecd57829003601f168201915b50505091835250506003820154602082015260049091015460ff16151560409091015280519091506001600160a01b0316610f67576040805162461bcd60e51b81526020600482015260186024820152772237b1bab6b2b73a103237b2b9903737ba1032bc34b9ba1760411b604482015290519081900360640190fd5b604080516020808252845181830152845133937f6c145505643a3b8444f0c12ea8df8983e83b32cae97e966a540cdc8bc62966b29387939092839283019185019080838360005b83811015610fc6578181015183820152602001610fae565b50505050905090810190601f168015610ff35780820380516001836020036101000a031916815260200191505b509250505060405180910390a25050565b60006001600160a01b03166000826040518082805190602001908083835b602083106110415780518252601f199092019160209182019101611022565b51815160209384036101000a60001901801990921691161790529201948552506040519384900301909220546001600160a01b0316929092141591506110cb9050576040805162461bcd60e51b81526020600482015260186024820152772237b1bab6b2b73a103237b2b9903737ba1032bc34b9ba1760411b604482015290519081900360640190fd5b336001600160a01b03166000826040518082805190602001908083835b602083106111075780518252601f1990920191602091820191016110e8565b51815160209384036101000a60001901801990921691161790529201948552506040519384900301909220546001600160a01b031692909214915061117f90505760405162461bcd60e51b815260040180806020018281038252602a815260200180611df1602a913960400191505060405180910390fd5b604080516020808252835181830152835133937f6f917eec072f3efd09efa2cbf7e49ee07b6dc496cab1b8a53758e0618b8190c39386939092839283019185019080838360005b838110156111de5781810151838201526020016111c6565b50505050905090810190601f16801561120b5780820380516001836020036101000a031916815260200191505b509250505060405180910390a26000816040518082805190602001908083835b6020831061124a5780518252601f19909201916020918201910161122b565b51815160209384036101000a6000190180199092169116179052920194855250604051938490030190922080546001600160a01b03191681559150600090506112966001830182611d62565b6112a4600283016000611d62565b5060006003820155600401805460ff1916905560405181516001918391819060208401908083835b602083106112eb5780518252601f1990920191602091820191016112cc565b51815160209384036101000a60001901801990921691161790529201948552506040519384900301909220805460ff19169055505050565b60608061132e611d28565b6000846040518082805190602001908083835b602083106113605780518252601f199092019160209182019101611341565b518151602093840361010090810a600019908101801990941693909216929092179092529290940196875260408051978890038201882060a08901825280546001600160a01b0316895260018082018054845160029382161590970290980190971604601f810184900484028501840190925281845296508782019550919392508301828280156114325780601f1061140757610100808354040283529160200191611432565b820191906000526020600020905b81548152906001019060200180831161141557829003601f168201915b5050509183525050600282810180546040805160206001841615610100026000190190931694909404601f810183900483028501830190915280845293810193908301828280156114c45780601f10611499576101008083540402835291602001916114c4565b820191906000526020600020905b8154815290600101906020018083116114a757829003601f168201915b50505091835250506003820154602082015260049091015460ff16151560409091015280519091506001600160a01b0316611541576040805162461bcd60e51b81526020600482015260186024820152772237b1bab6b2b73a103237b2b9903737ba1032bc34b9ba1760411b604482015290519081900360640190fd5b60208101516040909101519092509050915091565b6001816040518082805190602001908083835b602083106115885780518252601f199092019160209182019101611569565b51815160209384036101000a600019018019909216911617905292019485525060405193849003019092205460ff1691506116069050576040805162461bcd60e51b8152602060048201526017602482015276111bd8dd5b595b9d08191bd95cc81b9bdd08195e1a5cdd604a1b604482015290519081900360640190fd5b600080826040518082805190602001908083835b602083106116395780518252601f19909201916020918201910161161a565b51815160001960209485036101000a0190811690199190911617905292019485525060408051948590038201852060048101805460ff191660011790553386840181905282875288519287019290925287519096507fa3ed58de70b03ad29a8cb3c5b2f97edebb0a3d68dde6c08b566b22f0288a85dd9588955091935090918291606083019186019080838360005b838110156116e05781810151838201526020016116c8565b50505050905090810190601f16801561170d5780820380516001836020036101000a031916815260200191505b50935050505060405180910390a15050565b6000606060008061172e611d28565b6000866040518082805190602001908083835b602083106117605780518252601f199092019160209182019101611741565b518151602093840361010090810a600019908101801990941693909216929092179092529290940196875260408051978890038201882060a08901825280546001600160a01b0316895260018082018054845160029382161590970290980190971604601f810184900484028501840190925281845296508782019550919392508301828280156118325780601f1061180757610100808354040283529160200191611832565b820191906000526020600020905b81548152906001019060200180831161181557829003601f168201915b5050509183525050600282810180546040805160206001841615610100026000190190931694909404601f810183900483028501830190915280845293810193908301828280156118c45780601f10611899576101008083540402835291602001916118c4565b820191906000526020600020905b8154815290600101906020018083116118a757829003601f168201915b50505091835250506003820154602082015260049091015460ff16151560409091015280519091506001600160a01b0316611941576040805162461bcd60e51b81526020600482015260186024820152772237b1bab6b2b73a103237b2b9903737ba1032bc34b9ba1760411b604482015290519081900360640190fd5b80516040820151606083015160809093015191989097509195509350915050565b60006001826040518082805190602001908083835b602083106119965780518252601f199092019160209182019101611977565b51815160209384036101000a600019018019909216911617905292019485525060405193849003019092205460ff169150611a149050576040805162461bcd60e51b8152602060048201526017602482015276111bd8dd5b595b9d08191bd95cc81b9bdd08195e1a5cdd604a1b604482015290519081900360640190fd5b6000826040518082805190602001908083835b60208310611a465780518252601f199092019160209182019101611a27565b51815160209384036101000a600019018019909216911617905292019485525060405193849003019092206004015460ff16949350505050565b600080836040518082805190602001908083835b60208310611ab35780518252601f199092019160209182019101611a94565b51815160001960209485036101000a01908116901991909116179052920194855250604051938490030190922080549093506001600160a01b031633149150611b2f90505760405162461bcd60e51b815260040180806020018281038252602a815260200180611dc7602a913960400191505060405180910390fd5b6000825111611b85576040805162461bcd60e51b815260206004820152601a60248201527f4e6577207469746c652063616e6e6f7420626520656d7074792e000000000000604482015290519081900360640190fd5b8151611b9a9060028301906020850190611caa565b50336001600160a01b03167fc0773d0517931c6cae656eb7e6518a16195c0bf8cb268273bb4741743fa7b3648484604051808060200180602001838103835285818151815260200191508051906020019080838360005b83811015611c09578181015183820152602001611bf1565b50505050905090810190601f168015611c365780820380516001836020036101000a031916815260200191505b50838103825284518152845160209182019186019080838360005b83811015611c69578181015183820152602001611c51565b50505050905090810190601f168015611c965780820380516001836020036101000a031916815260200191505b5094505050505060405180910390a2505050565b828054600181600116156101000203166002900490600052602060002090601f016020900481019282601f10611ceb57805160ff1916838001178555611d18565b82800160010185558215611d18579182015b82811115611d18578251825591602001919060010190611cfd565b50611d24929150611da9565b5090565b6040518060a0016040528060006001600160a01b031681526020016060815260200160608152602001600081526020016000151581525090565b50805460018160011615610100020316600290046000825580601f10611d885750611da6565b601f016020900490600052602060002090810190611da69190611da9565b50565b611dc391905b80821115611d245760008155600101611daf565b9056fe4f6e6c79207468652075706c6f616465722063616e207570646174652074686520646f63756d656e742e4f6e6c79207468652075706c6f616465722063616e2064656c6574652074686520646f63756d656e742ea265627a7a723158204dbb03b463938eefae16636f1de7d383faa3749f7b78c44e68dd997cf6553a4464736f6c63430005100032",
  "source": "// SPDX-License-Identifier: MIT\r\npragma solidity >=0.4.22 <0.9.0;\r\n\r\ncontract DocumentStorage {\r\n    struct Document {\r\n        address uploader;\r\n        string fileHash; // IPFS hash or document identifier\r\n        string title;    // Title of the document\r\n        uint256 timestamp;\r\n        bool isVerified;  // Boolean to track verification status\r\n    }\r\n\r\n    // Mapping of file hashes to Document structs\r\n    mapping(string => Document) private documents;\r\n    mapping(string => bool) private documentExistence;  // Renamed to avoid conflict with function name\r\n\r\n    // Events for actions\r\n    event DocumentUploaded(string fileHash, address indexed uploader, string title);\r\n    event DocumentUpdated(string fileHash, string newTitle, address indexed updater);\r\n    event DocumentRetrieved(string fileHash, address indexed retriever);\r\n    event DocumentDeleted(string fileHash, address indexed deleter);\r\n    event DocumentVerified(string fileHash, address verifier);\r\n\r\n    // Function to upload a document\r\n    function uploadDocument(string memory _fileHash, string memory _title) public {\r\n        require(bytes(_fileHash).length > 0, \"File hash cannot be empty.\");\r\n        require(bytes(_title).length > 0, \"Title cannot be empty.\");\r\n        require(documents[_fileHash].uploader == address(0), \"Document already exists.\");\r\n\r\n        documents[_fileHash] = Document({\r\n            uploader: msg.sender,\r\n            fileHash: _fileHash,\r\n            title: _title,\r\n            timestamp: block.timestamp,\r\n            isVerified: false  // Initializing isVerified as false\r\n        });\r\n\r\n        documentExistence[_fileHash] = true;  // Mark that the document exists\r\n\r\n        emit DocumentUploaded(_fileHash, msg.sender, _title);\r\n    }\r\n\r\n    // Function to retrieve document details (view-only)\r\n    function getDocumentDetails(string memory _fileHash) public view returns (address, string memory, uint256, bool) {\r\n        Document memory doc = documents[_fileHash];\r\n        require(doc.uploader != address(0), \"Document does not exist.\");\r\n\r\n        return (doc.uploader, doc.title, doc.timestamp, doc.isVerified);\r\n    }\r\n\r\n    // Function to emit event when document is retrieved\r\n    function retrieveDocument(string memory _fileHash) public {\r\n        Document memory doc = documents[_fileHash];\r\n        require(doc.uploader != address(0), \"Document does not exist.\");\r\n\r\n        emit DocumentRetrieved(_fileHash, msg.sender);  // Emit event on retrieval\r\n    }\r\n\r\n    // Function to update the document title\r\n    function updateDocumentTitle(string memory _fileHash, string memory _newTitle) public {\r\n        Document storage doc = documents[_fileHash];\r\n        require(doc.uploader == msg.sender, \"Only the uploader can update the document.\");\r\n        require(bytes(_newTitle).length > 0, \"New title cannot be empty.\");\r\n\r\n        doc.title = _newTitle;\r\n\r\n        emit DocumentUpdated(_fileHash, _newTitle, msg.sender);\r\n    }\r\n\r\n    // Function to delete a document\r\n    function deleteDocument(string memory _fileHash) public {\r\n        require(documents[_fileHash].uploader != address(0), \"Document does not exist.\");  // Check if document exists\r\n        require(documents[_fileHash].uploader == msg.sender, \"Only the uploader can delete the document.\");  // Check if sender is the uploader\r\n\r\n        emit DocumentDeleted(_fileHash, msg.sender);  // Emit event before deletion\r\n        delete documents[_fileHash];  // Delete the document from the mapping\r\n        delete documentExistence[_fileHash];  // Mark that the document no longer exists\r\n    }\r\n\r\n    // Function to check if a document exists (for external validation)\r\n    function doesDocumentExist(string memory _fileHash) public view returns (bool) {\r\n        return documentExistence[_fileHash];\r\n    }\r\n\r\n    // Function to get the file hash and title (for download instructions)\r\n    function getDocument(string memory _fileHash) public view returns (string memory, string memory) {\r\n        Document memory doc = documents[_fileHash];\r\n        require(doc.uploader != address(0), \"Document does not exist.\");\r\n\r\n        return (doc.fileHash, doc.title);\r\n    }\r\n\r\n    // Function to verify a document\r\n    function verifyDocument(string memory _fileHash) public {\r\n        require(documentExistence[_fileHash], \"Document does not exist\");  // Use the renamed mapping\r\n        Document storage doc = documents[_fileHash];\r\n        doc.isVerified = true;\r\n        \r\n        emit DocumentVerified(_fileHash, msg.sender);\r\n    }\r\n\r\n    // Add a function to get document verification status\r\n    function isDocumentVerified(string memory _fileHash) public view returns (bool) {\r\n        require(documentExistence[_fileHash], \"Document does not exist\");  // Use the renamed mapping\r\n        return documents[_fileHash].isVerified;\r\n    }\r\n}\r\n",
  "sourcePath": "C:\\Users\\Lenovo\\Downloads\\block-20241115T050318Z-001\\block\\contracts\\Contract.sol",
  "compiler": {
    "name": "solc",
    "version": "0.5.16+commit.9c3226ce.Emscripten.clang"
  },
  "schemaVersion": "3.4.16",
  "updatedAt": "2024-11-15T16:59:31.837Z",
  "networkType": "ethereum",
  "devdoc": {
    "methods": {}
  },
  "userdoc": {
    "methods": {}
  }
}