{
  "contractName": "DocumentVault",
  "abi": [
    {
      "anonymous": false,
      "inputs": [
        {
          "indexed": false,
          "internalType": "string",
          "name": "fileHash",
          "type": "string"
        }
      ],
      "name": "DocumentDeleted",
      "type": "event"
    },
    {
      "anonymous": false,
      "inputs": [
        {
          "indexed": false,
          "internalType": "string",
          "name": "fileHash",
          "type": "string"
        },
        {
          "indexed": false,
          "internalType": "string",
          "name": "newTitle",
          "type": "string"
        }
      ],
      "name": "DocumentUpdated",
      "type": "event"
    },
    {
      "anonymous": false,
      "inputs": [
        {
          "indexed": false,
          "internalType": "string",
          "name": "fileHash",
          "type": "string"
        },
        {
          "indexed": false,
          "internalType": "address",
          "name": "uploader",
          "type": "address"
        },
        {
          "indexed": false,
          "internalType": "string",
          "name": "title",
          "type": "string"
        }
      ],
      "name": "DocumentUploaded",
      "type": "event"
    },
    {
      "constant": false,
      "inputs": [
        {
          "internalType": "string",
          "name": "fileHash",
          "type": "string"
        },
        {
          "internalType": "string",
          "name": "title",
          "type": "string"
        }
      ],
      "name": "uploadDocument",
      "outputs": [],
      "payable": false,
      "stateMutability": "nonpayable",
      "type": "function"
    },
    {
      "constant": true,
      "inputs": [
        {
          "internalType": "string",
          "name": "fileHash",
          "type": "string"
        }
      ],
      "name": "getDocumentDetails",
      "outputs": [
        {
          "internalType": "address",
          "name": "",
          "type": "address"
        },
        {
          "internalType": "string",
          "name": "",
          "type": "string"
        },
        {
          "internalType": "uint256",
          "name": "",
          "type": "uint256"
        }
      ],
      "payable": false,
      "stateMutability": "view",
      "type": "function"
    },
    {
      "constant": false,
      "inputs": [
        {
          "internalType": "string",
          "name": "fileHash",
          "type": "string"
        },
        {
          "internalType": "string",
          "name": "newTitle",
          "type": "string"
        }
      ],
      "name": "updateDocumentTitle",
      "outputs": [],
      "payable": false,
      "stateMutability": "nonpayable",
      "type": "function"
    },
    {
      "constant": false,
      "inputs": [
        {
          "internalType": "string",
          "name": "fileHash",
          "type": "string"
        }
      ],
      "name": "deleteDocument",
      "outputs": [],
      "payable": false,
      "stateMutability": "nonpayable",
      "type": "function"
    }
  ],
  "bytecode": "0x608060405234801561001057600080fd5b50611044806100206000396000f3fe608060405234801561001057600080fd5b506004361061004c5760003560e01c80634464fe3314610051578063635994f81461017c578063d29352db14610220578063f979d5ce14610352575b600080fd5b61017a6004803603604081101561006757600080fd5b810190602081018135600160201b81111561008157600080fd5b82018360208201111561009357600080fd5b803590602001918460018302840111600160201b831117156100b457600080fd5b91908080601f0160208091040260200160405190810160405280939291908181526020018383808284376000920191909152509295949360208101935035915050600160201b81111561010657600080fd5b82018360208201111561011857600080fd5b803590602001918460018302840111600160201b8311171561013957600080fd5b91908080601f01602080910402602001604051908101604052809392919081815260200183838082843760009201919091525092955061047b945050505050565b005b61017a6004803603602081101561019257600080fd5b810190602081018135600160201b8111156101ac57600080fd5b8201836020820111156101be57600080fd5b803590602001918460018302840111600160201b831117156101df57600080fd5b91908080601f0160208091040260200160405190810160405280939291908181526020018383808284376000920191909152509295506107bd945050505050565b6102c46004803603602081101561023657600080fd5b810190602081018135600160201b81111561025057600080fd5b82018360208201111561026257600080fd5b803590602001918460018302840111600160201b8311171561028357600080fd5b91908080601f016020809104026020016040519081016040528093929190818152602001838380828437600092019190915250929550610a52945050505050565b604080516001600160a01b0385168152908101829052606060208083018281528551928401929092528451608084019186019080838360005b838110156103155781810151838201526020016102fd565b50505050905090810190601f1680156103425780820380516001836020036101000a031916815260200191505b5094505050505060405180910390f35b61017a6004803603604081101561036857600080fd5b810190602081018135600160201b81111561038257600080fd5b82018360208201111561039457600080fd5b803590602001918460018302840111600160201b831117156103b557600080fd5b91908080601f0160208091040260200160405190810160405280939291908181526020018383808284376000920191909152509295949360208101935035915050600160201b81111561040757600080fd5b82018360208201111561041957600080fd5b803590602001918460018302840111600160201b8311171561043a57600080fd5b91908080601f016020809104026020016040519081016040528093929190818152602001838380828437600092019190915250929550610c58945050505050565b60008251116104d1576040805162461bcd60e51b815260206004820152601a60248201527f46696c6520686173682063616e6e6f7420626520656d7074792e000000000000604482015290519081900360640190fd5b6000815111610520576040805162461bcd60e51b81526020600482015260166024820152752a34ba36329031b0b73737ba1031329032b6b83a3c9760511b604482015290519081900360640190fd5b60006001600160a01b03166000836040518082805190602001908083835b6020831061055d5780518252601f19909201916020918201910161053e565b51815160209384036101000a60001901801990921691161790529201948552506040519384900301909220546001600160a01b03169290921491506105eb9050576040805162461bcd60e51b815260206004820152601860248201527f446f63756d656e7420616c7265616479206578697374732e0000000000000000604482015290519081900360640190fd5b6040518060600160405280336001600160a01b03168152602001828152602001428152506000836040518082805190602001908083835b602083106106415780518252601f199092019160209182019101610622565b51815160209384036101000a6000190180199092169116179052920194855250604051938490038101909320845181546001600160a01b0319166001600160a01b0390911617815584840151805191946106a394506001860193500190610ed9565b506040918201516002909101558051336020808301829052606080845286519084015285517fbdc7fde3b4a71173cee079101fe0d18731cbf1c571b1a8b63ff063c95367ac7694879487939092839283019160808401919088019080838360005b8381101561071c578181015183820152602001610704565b50505050905090810190601f1680156107495780820380516001836020036101000a031916815260200191505b50838103825284518152845160209182019186019080838360005b8381101561077c578181015183820152602001610764565b50505050905090810190601f1680156107a95780820380516001836020036101000a031916815260200191505b509550505050505060405180910390a15050565b806000816040518082805190602001908083835b602083106107f05780518252601f1990920191602091820191016107d1565b51815160209384036101000a60001901801990921691161790529201948552506040519384900301909220546001600160a01b03163314915061086690505760405162461bcd60e51b815260040180806020018281038252602a815260200180610fe6602a913960400191505060405180910390fd5b60006001600160a01b03166000836040518082805190602001908083835b602083106108a35780518252601f199092019160209182019101610884565b51815160209384036101000a60001901801990921691161790529201948552506040519384900301909220546001600160a01b03169290921415915061092d9050576040805162461bcd60e51b81526020600482015260186024820152772237b1bab6b2b73a103237b2b9903737ba1032bc34b9ba1760411b604482015290519081900360640190fd5b6000826040518082805190602001908083835b6020831061095f5780518252601f199092019160209182019101610940565b51815160209384036101000a6000190180199092169116179052920194855250604051938490030190922080546001600160a01b03191681559150600090506109ab6001830182610f57565b600282016000905550507fc6f59531ee05ccb67116665c77619371ca389d982004b2eb45f135ddfaf446cb826040518080602001828103825283818151815260200191508051906020019080838360005b83811015610a145781810151838201526020016109fc565b50505050905090810190601f168015610a415780820380516001836020036101000a031916815260200191505b509250505060405180910390a15050565b600060606000806001600160a01b03166000856040518082805190602001908083835b60208310610a945780518252601f199092019160209182019101610a75565b51815160209384036101000a60001901801990921691161790529201948552506040519384900301909220546001600160a01b031692909214159150610b1e9050576040805162461bcd60e51b81526020600482015260186024820152772237b1bab6b2b73a103237b2b9903737ba1032bc34b9ba1760411b604482015290519081900360640190fd5b610b26610f9e565b6000856040518082805190602001908083835b60208310610b585780518252601f199092019160209182019101610b39565b518151602093840361010090810a600019908101801990941693909216929092179092529290940196875260408051978890038201882060608901825280546001600160a01b0316895260018082018054845160029382161590970290980190971604601f81018490048402850184019092528184529650878201955091939250830182828015610c2a5780601f10610bff57610100808354040283529160200191610c2a565b820191906000526020600020905b815481529060010190602001808311610c0d57829003601f168201915b5050509183525050600291909101546020918201528151908201516040909201519097919650945092505050565b816000816040518082805190602001908083835b60208310610c8b5780518252601f199092019160209182019101610c6c565b51815160209384036101000a60001901801990921691161790529201948552506040519384900301909220546001600160a01b031633149150610d0190505760405162461bcd60e51b815260040180806020018281038252602a815260200180610fe6602a913960400191505060405180910390fd5b6000825111610d57576040805162461bcd60e51b815260206004820152601a60248201527f4e6577207469746c652063616e6e6f7420626520656d7074792e000000000000604482015290519081900360640190fd5b816000846040518082805190602001908083835b60208310610d8a5780518252601f199092019160209182019101610d6b565b6001836020036101000a03801982511681845116808217855250505050505090500191505090815260200160405180910390206001019080519060200190610dd3929190610ed9565b507fbaa206e5ea800eb88bce099f453fee53295b793b9d5d1cfc4ce4b6db06a34f538383604051808060200180602001838103835285818151815260200191508051906020019080838360005b83811015610e38578181015183820152602001610e20565b50505050905090810190601f168015610e655780820380516001836020036101000a031916815260200191505b50838103825284518152845160209182019186019080838360005b83811015610e98578181015183820152602001610e80565b50505050905090810190601f168015610ec55780820380516001836020036101000a031916815260200191505b5094505050505060405180910390a1505050565b828054600181600116156101000203166002900490600052602060002090601f016020900481019282601f10610f1a57805160ff1916838001178555610f47565b82800160010185558215610f47579182015b82811115610f47578251825591602001919060010190610f2c565b50610f53929150610fc8565b5090565b50805460018160011615610100020316600290046000825580601f10610f7d5750610f9b565b601f016020900490600052602060002090810190610f9b9190610fc8565b50565b604051806060016040528060006001600160a01b0316815260200160608152602001600081525090565b610fe291905b80821115610f535760008155600101610fce565b9056fe4f6e6c79207468652075706c6f616465722063616e20706572666f726d207468697320616374696f6e2ea265627a7a723158204ccb43069fbce5d2d99edd82bd122697c7b0c7af68c54e036fba0ced84c6ae0364736f6c63430005100032",
  "source": "// SPDX-License-Identifier: MIT\r\npragma solidity >=0.4.21 <0.7.0;\r\n\r\ncontract DocumentVault {\r\n    struct Document {\r\n        address uploader;\r\n        string title;\r\n        uint256 timestamp;\r\n    }\r\n\r\n    mapping(string => Document) private documents; // fileHash => Document\r\n    event DocumentUploaded(string fileHash, address uploader, string title);\r\n    event DocumentUpdated(string fileHash, string newTitle);\r\n    event DocumentDeleted(string fileHash);\r\n\r\n    modifier onlyUploader(string memory fileHash) {\r\n        require(msg.sender == documents[fileHash].uploader, \"Only the uploader can perform this action.\");\r\n        _;\r\n    }\r\n\r\n    function uploadDocument(string memory fileHash, string memory title) public {\r\n        require(bytes(fileHash).length > 0, \"File hash cannot be empty.\");\r\n        require(bytes(title).length > 0, \"Title cannot be empty.\");\r\n        require(documents[fileHash].uploader == address(0), \"Document already exists.\");\r\n\r\n        documents[fileHash] = Document(msg.sender, title, now);\r\n        emit DocumentUploaded(fileHash, msg.sender, title);\r\n    }\r\n\r\n    function getDocumentDetails(string memory fileHash) public view returns (address, string memory, uint256) {\r\n        require(documents[fileHash].uploader != address(0), \"Document does not exist.\");\r\n        Document memory doc = documents[fileHash];\r\n        return (doc.uploader, doc.title, doc.timestamp);\r\n    }\r\n\r\n    function updateDocumentTitle(string memory fileHash, string memory newTitle) public onlyUploader(fileHash) {\r\n        require(bytes(newTitle).length > 0, \"New title cannot be empty.\");\r\n        documents[fileHash].title = newTitle;\r\n        emit DocumentUpdated(fileHash, newTitle);\r\n    }\r\n\r\n    function deleteDocument(string memory fileHash) public onlyUploader(fileHash) {\r\n        require(documents[fileHash].uploader != address(0), \"Document does not exist.\");\r\n        delete documents[fileHash];\r\n        emit DocumentDeleted(fileHash);\r\n    }\r\n}\r\n",
  "sourcePath": "C:\\block\\contracts\\Contract.sol",
  "compiler": {
    "name": "solc",
    "version": "0.5.16+commit.9c3226ce.Emscripten.clang"
  },
  "schemaVersion": "3.4.16",
  "updatedAt": "2024-10-06T09:41:53.829Z",
  "devdoc": {
    "methods": {}
  },
  "userdoc": {
    "methods": {}
  }
}