{
  "contractName": "Verify",
  "abi": [
    {
      "constant": true,
      "inputs": [
        {
          "internalType": "string",
          "name": "",
          "type": "string"
        }
      ],
      "name": "documents",
      "outputs": [
        {
          "internalType": "string",
          "name": "fileHash",
          "type": "string"
        },
        {
          "internalType": "string",
          "name": "fileName",
          "type": "string"
        },
        {
          "internalType": "address",
          "name": "uploader",
          "type": "address"
        },
        {
          "internalType": "bool",
          "name": "isVerified",
          "type": "bool"
        }
      ],
      "payable": false,
      "stateMutability": "view",
      "type": "function"
    },
    {
      "constant": false,
      "inputs": [
        {
          "internalType": "string",
          "name": "_fileHash",
          "type": "string"
        }
      ],
      "name": "verifyDocument",
      "outputs": [],
      "payable": false,
      "stateMutability": "nonpayable",
      "type": "function"
    }
  ],
  "bytecode": "0x608060405234801561001057600080fd5b5061056e806100206000396000f3fe608060405234801561001057600080fd5b50600436106100365760003560e01c8063b3dd697b1461003b578063beee5eb7146101d8575b600080fd5b6100e16004803603602081101561005157600080fd5b81019060208101813564010000000081111561006c57600080fd5b82018360208201111561007e57600080fd5b803590602001918460018302840111640100000000831117156100a057600080fd5b91908080601f016020809104026020016040519081016040528093929190818152602001838380828437600092019190915250929550610280945050505050565b604080516001600160a01b03841691810191909152811515606082015260808082528551908201528451819060208083019160a084019189019080838360005b83811015610139578181015183820152602001610121565b50505050905090810190601f1680156101665780820380516001836020036101000a031916815260200191505b50838103825286518152865160209182019188019080838360005b83811015610199578181015183820152602001610181565b50505050905090810190601f1680156101c65780820380516001836020036101000a031916815260200191505b50965050505050505060405180910390f35b61027e600480360360208110156101ee57600080fd5b81019060208101813564010000000081111561020957600080fd5b82018360208201111561021b57600080fd5b8035906020019184600183028401116401000000008311171561023d57600080fd5b91908080601f0160208091040260200160405190810160405280939291908181526020018383808284376000920191909152509295506103e7945050505050565b005b805160208183018101805160008252928201938201939093209190925280546040805160026001841615610100026000190190931692909204601f81018590048502830185019091528082529192909183918301828280156103235780601f106102f857610100808354040283529160200191610323565b820191906000526020600020905b81548152906001019060200180831161030657829003601f168201915b505050505090806001018054600181600116156101000203166002900480601f0160208091040260200160405190810160405280929190818152602001828054600181600116156101000203166002900480156103c15780601f10610396576101008083540402835291602001916103c1565b820191906000526020600020905b8154815290600101906020018083116103a457829003601f168201915b505050600290930154919250506001600160a01b0381169060ff600160a01b9091041684565b60006001600160a01b03166000826040518082805190602001908083835b602083106104245780518252601f199092019160209182019101610405565b51815160209384036101000a60001901801990921691161790529201948552506040519384900301909220600201546001600160a01b0316929092141591506104b69050576040805162461bcd60e51b815260206004820152601760248201527f446f63756d656e7420646f6573206e6f74206578697374000000000000000000604482015290519081900360640190fd5b60016000826040518082805190602001908083835b602083106104ea5780518252601f1990920191602091820191016104cb565b51815160209384036101000a60001901801990921691161790529201948552506040519384900301909220600201805460ff60a01b1916600160a01b941515949094029390931790925550505056fea265627a7a72315820913f5741b90931db562512ec5471ba86576a4f75c4fa08f23ebed4af8f40810964736f6c63430005100032",
  "source": "// SPDX-License-Identifier: MIT\r\npragma solidity >=0.4.22 <0.9.0;\r\n\r\ncontract Verify {\r\n    // Define your struct and mapping for documents\r\n    struct Document {\r\n        string fileHash;\r\n        string fileName;\r\n        address uploader;\r\n        bool isVerified;\r\n    }\r\n\r\n    mapping(string => Document) public documents;\r\n\r\n    // Function to verify a document\r\n    function verifyDocument(string memory _fileHash) public {\r\n        require(documents[_fileHash].uploader != address(0), \"Document does not exist\");\r\n        documents[_fileHash].isVerified = true;\r\n    }\r\n}\r\n",
  "sourcePath": "C:\\Users\\Lenovo\\Downloads\\block-20241115T050318Z-001\\block\\contracts\\verify.sol",
  "compiler": {
    "name": "solc",
    "version": "0.5.16+commit.9c3226ce.Emscripten.clang"
  },
  "schemaVersion": "3.4.16",
  "updatedAt": "2024-11-15T16:59:09.708Z",
  "devdoc": {
    "methods": {}
  },
  "userdoc": {
    "methods": {}
  }
}